:020000040800F2
:1000000098650020590200086F3C00086D3A00080E
:100010006D3C0008E1200008854400080000000055
:100020000000000000000000000000000B3D000880
:100030004D23000800000000713C00087D3F0008CF
:1000400073020008730200087302000873020008BC
:1000500073020008730200087302000873020008AC
:10006000730200087302000873020008730200089C
:10007000730200087302000873020008730200088C
:10008000730200087302000873020008730200087C
:10009000730200087302000873020008730200086C
:1000A0005D40000873020008730200087302000834
:1000B000730200087302000873020008730200084C
:1000C000730200087302000873020008730200083C
:1000D00073020008D9430008114400084544000891
:1000E00073020008753C00087302000873020008E0
:1000F000730200087302000873020008730200080C
:1001000073020008730200087302000873020008FB
:1001100073020008730200087302000873020008EB
:1001200073020008730200087302000873020008DB
:1001300073020008730200087302000873020008CB
:1001400073020008730200087302000873020008BB
:1001500073020008730200087302000873020008AB
:10016000730200087302000873020008730200089B
:100170007302000873020008730200080000000008
:10018000730200087302000800F002F800F054F84F
:100190000AA090E8000C82448344AAF10107DA45E2
:1001A00001D100F049F8AFF2090EBAE80F0013F0E0
:1001B000010F18BFFB1A43F001031847E851000074
:1001C00008520000103A24BF78C878C1FAD8520704
:1001D00024BF30C830C144BF04680C6070470000C1
:1001E0000023002400250026103A28BF78C1FBD840
:1001F000520728BF30C148BF0B607047662904F022
:100200005D86642900F0CC80002070471FB504F0A3
:1002100050FE9DE8030001F013F900F0C1FC04005A
:100220000020002104F0B8FDE06000F0D1FD1FBD0A
:1002300010B500F036FE10BD00F09EFE1146FFF72F
:10024000E5FF04F085FC01F08DF803B4FFF7F0FF43
:1002500003BC01F087FA00000948804709480047BD
:10026000FEE7FEE7FEE7FEE7FEE7FEE7FEE7FEE766
:10027000FEE7FEE704480549054A064B70470000C3
:100280004D4000088901000898050020986500206D
:10029000982500209825002053EA020C00F0698080
:1002A0002DE9F04B4FF00006002B1FBFB3FA83F58A
:1002B00003FA05F424FA05F65E4012BF1643B2FABB
:1002C00082F502FA05F4C5F120051EBF22FA05FCED
:1002D00044EA0C04203556EA044C4FEA144418BF93
:1002E000641C4FF000084FF00009904271EB030CC2
:1002F00039D3002919BFB1FA81F701FA07F6B0FA2C
:1003000080F700FA07F6C7F120071EBF20FA07FCA6
:1003100046EA0C062037B6FBF4FCA7EB0507103FB6
:1003200007F01F0BCBF120060CFA0BFB2CFA06F69C
:1003300044BFB3460026202FA4BF5E464FF0000BFB
:100340005BEA060C08BF4FF0010B19EB0B09ABFB86
:10035000027C48EB0608C01B06FB02CC0BFB03CC5F
:1003600071EB0C01C1E70B46024641464846BDE829
:10037000F08B13B54FF000004FF00001AFF3008099
:10038000BDE81C40704700000FB4044910B503AA33
:10039000029800F0C1FB10BC5DF814FB8C04002037
:1003A0002DE9F0410646002410687529314616A54E
:1003B00010D0AFF30080002802DA404213A507E016
:1003C00031688A0701D512A502E0490704D511A5B5
:1003D000012401E0AFF3008000210A2206F1240786
:1003E00009E0B0FBF2FCB0FBF2F302FB1C00303082
:1003F00078541846491C0028F3D123462A46304633
:10040000BDE8F04100F020B9000000002D00000020
:100410002B000000200000002DE9F0474FF0000AFB
:1004200089460446C0F820A02046E1688847002895
:1004300076D0252806D0D4E901219047206A401CB7
:100440002062F1E7E168204600258847C4F81CA037
:1004500006460027C4F818A02A2E09D0304604F01A
:1004600057FB38B304EB8708303EC8F8186019E032
:1004700059F8041B204604EB87029161E168884724
:10048000012F064618D1E069002820DA25F0200562
:100490001DE0D8F8180000EB800006EB4000303873
:1004A000C8F818002046E1688847064604F030FB8B
:1004B0000028EED1012F0AD02E2E08D12046E16867
:1004C00088477F1C0646022F45F02005C4DBA06943
:1004D000002803DA404245F00105A061E80701D099
:1004E00025F01005B6B1A6F14100192802D8203632
:1004F00045F400654A463146204625604D46FFF7E3
:100500007DFE58B1012806D0ED1D25F0070000F151
:10051000080989E704E005F1040985E730468AE720
:10052000206ABDE8F087032A40F2308010F0030C07
:1005300000F0158011F8013BBCF1020F624498BF36
:1005400011F801CB00F8013B38BF11F8013BA2F1D3
:10055000040298BF00F801CB38BF00F8013B11F04E
:10056000030300F0EB82083AC0F0088051F8043B26
:10057000083A51F804CBA0E80810F5E7121D5CBF5B
:1005800051F8043B40F8043BAFF30080D20724BF8E
:1005900011F8013B11F801CB48BF11F8012B24BF22
:1005A00000F8013B00F801CB48BF00F8012B704771
:1005B0004FF000020429C0F0128010F0030C00F08C
:1005C0001B80CCF1040CBCF1020F18BF00F8012B0A
:1005D000A8BF20F8022BA1EB0C0100F00DB85FEAD8
:1005E000C17C24BF00F8012B00F8012B48BF00F8A4
:1005F000012B70474FF0000200B513469446964613
:10060000203922BFA0E80C50A0E80C50B1F1200125
:10061000BFF4F7AF090728BFA0E80C5048BF0CC0D3
:100620005DF804EB890028BF40F8042B08BF704731
:1006300048BF20F8022B11F0804F18BF00F8012BA3
:1006400070477047704770472DE9F0470D4699464F
:100650009246044600F124080168880604D5E06942
:1006600021F01001216000E00120A84201DD471BBC
:1006700000E00027A1697A1902EB0900081AA061BD
:100680002078C00602D42046AFF30080002608E0A0
:10069000D4E901211AF806009047206A401C761C14
:1006A00020624E45F4DB2078C0060AD52046AFF321
:1006B000008006E0D4E9012130209047206A401CE8
:1006C0002062381EA7F10107F4DC07E0D4E901211C
:1006D00018F805009047206A401C2062281EA5F1EA
:1006E0000105F3DC2046AFF300802078000602D538
:1006F0000220BDE8F0870120FBE770472DE9FF4F9E
:100700000C461E464FF0FF378BB0D2E90001DDF8F2
:1007100060800A908A46C1F30A5505B93D4600211A
:1007200008464FF00000BAF1000F00F4400005DA6F
:1007300000EB80004FF4400101EA50004FEA90596D
:10074000B9F1010F00DDB9460A9850EA4A000ED00F
:1007500044F61050A5F2FF3545432F14B8F1000FB1
:100760001ED07542291E1EDDC9F100021CE0B8F141
:10077000010F4FF0000001D0302103E0F24305E00B
:100780002154401CB042FBDB3046002200212154A2
:100790000B99C1F80880C1E900200FB0BDE8F08FC7
:1007A000BD1B6D1CDEE74A4600DA694206A800F070
:1007B00099FA06AB93E8070003AB83E807005046BD
:1007C0000A9901F06BF88DE80700A0F500501F387A
:1007D00000900398002D0ADD42F21F014A460844AA
:1007E000002303A90390684601F0D4FA09E0A0F5BC
:1007F00000504A461F38002303A90390684601F0C1
:10080000DEFA8DE807000004000C03D04FF0FF3043
:10081000410800E01046B8F1000F03D0002200921A
:1008200015461EE0751E05D400F0BEF93032625543
:100830006D1EF9D5B3460122084302D000227F1C69
:1008400004E02078302801D100227F1E002A099779
:1008500084D01DE0112D07DA00F0A6F93032625580
:100860006D1C50EA0102F5D1084302D00098C8B1CE
:100870000EE00021681E05E0235C625C6354225494
:10088000401E491C8142F7DBAB46A81B401E099065
:10089000002004F80B000B98099AC0F80880C0E902
:1008A000002B7AE711264FF0000857E72DE9F04FAB
:1008B00088460446D21D22F0070191B0D1E900011B
:1008C000CDE90A0104F0E6F802460B98C00F01D00A
:1008D0002D2007E02068810701D52B2002E0202190
:1008E00001EAC000032A099001D0072A05DB03466C
:1008F0004146204600F0B6F90BE12078800601D58C
:10090000E06900E00620B8F1650F814606D0B8F135
:10091000660F18D0B8F1670F70D131E00020B9F13F
:10092000110F009001DB112301E009F101030AAA74
:1009300001A90CA8FFF7E2FEDDE90C70002609F121
:100940000105834647E001204B4600904FF00047E9
:100950000AAA01A90CA8FFF7D1FEDDE90DB00C9998
:100960005D46002610B909F101000D18B9EB05002C
:1009700003D4C0F1FF3609F10105A5EB09002BE016
:10098000B9F1010F01DA4FF001090020B9F1110F9F
:100990000090484601DD112300E003460AAA01A9A0
:1009A0000CA8FFF7ABFEDDE90C704D460026834630
:1009B000207800070AD4AB4500DA5D4601A8012D76
:1009C00004DD411911F8011C302907D04F4502DA26
:1009D00017F1040F04DA012082460FE06D1EEEE7E6
:1009E000002F02DCED1B3E4403E0781CA84200DD32
:1009F0007D1CB81B00F1010A4FF00047207800076A
:100A000003D4AA4501DB4FF0FF3A0021B7F1004FB4
:100A10000DF143088DF8431024D002202B23002F22
:100A200001DA7F422D230A21021EA0F1010000DC21
:100A30005FB197FBF1FC97FBF1F201FB1C7C1746C1
:100A40000CF1300C08F801CDEEE7A8F101000370BD
:100A50002188090501D5452100E06521A0F10108A3
:100A600000F8011C09980FA9A1EB0807FF1D00B1B0
:100A70000120411901EBEA70A1693844081A401EAF
:100A8000A0612078C00602D42046AFF30080099808
:100A900028B1D4E901219047206A401C20622078C7
:100AA000C00622D52046AFF300801EE0002E04DBF6
:100AB000B34502DD01A8805D00E03020D4E90121CA
:100AC0009047206A401C2062761CAAF101005FEA70
:100AD000000A0AD100F064F8C0680168405CD4E9FB
:100AE00001219047206A401C2062281EA5F10105C3
:100AF000DCDC07E0D4E9012118F8010B9047206AFB
:100B0000401C2062381EA7F10107F3DC2046AFF33A
:100B10000080032011B041E6074B70B50D467B44C1
:100B200000F08DF80446284600F04EF910B14FF061
:100B3000FF3070BD204670BD1340000010B5203A54
:100B4000C0F00B80B1E81850203AA0E81850B1E886
:100B50001850A0E81850BFF4F5AF5FEA027C24BF3C
:100B6000B1E81850A0E8185044BF18C918C0BDE833
:100B700010405FEA827C24BF51F8043B40F8043BFC
:100B800008BF7047D20728BF31F8023B48BF11F8B1
:100B9000012B28BF20F8023B48BF00F8012B70470B
:100BA000004870475405002030B5B0F10A024FEA02
:100BB000900E71F100034EEA817EB0EB0E0061EB06
:100BC00091014FEA101E4EEA017E10EB0E0041EB40
:100BD00011114FEA102E4EEA016E10EB0E0041EBA0
:100BE00011214FEA104E4EEA014E10EB0E0041EB80
:100BF0001141401841F100014FEAD00040EA417034
:100C00004FEAD10110EB80054FEA810444EA907469
:100C100044EB01046D1944EB0404521BA3414FF053
:100C2000000348BF0A3200D530BD401C41F100012D
:100C300030BD000001694A1C02610878704700B5A8
:100C40008FB0CDE901310021059105497944CDE905
:100C5000031011466846FFF7DFFB0FB000BD000030
:100C6000E5FFFFFF2DE9F0411F460446032601681A
:100C7000072A01F4006004DB08B116A505E016A5FB
:100C800003E008B115A500E015A521F010002060D3
:100C9000A069C01EA0610FB1401EA0612046AFF345
:100CA00000804FB1D4E9012138469047206A401CAA
:100CB0002062C01C206206E0206AFAE7D4E9012124
:100CC00015F8010B9047761EF8D22046AFF300804E
:100CD000BDE8F0814E414E006E616E00494E460007
:100CE000696E66002DE9F047814616468AB03548A0
:100CF00078440DC88DE80D0032487844801C03AC60
:100D00000DC884E80D0041F69B300844372190FB64
:100D1000F1F290FBF1F5A5F1800501FB12041B3CFB
:100D200002D56442012000E00020DFF898A0804650
:100D30000027FA44AAF1BE0A0EE0E0070AD03246C4
:100D4000684607EB470101230AEB810101F037F800
:100D50008DE8070064107F1C002CEED1194F7F44F2
:100D6000AE3F19E0E80715D007EB04100DF1180AA3
:100D700090E80E008AE80E00C068F04201D1981990
:100D800008903246012306A903A801F018F803AB26
:100D900083E807006D10641C002DE3D14FF00103C0
:100DA00032466946B8F1000F03A802D000F0F2FF06
:100DB00001E001F004F8C9E90001C9F808200AB00F
:100DC000BDE8F08788440000007B00F08000704799
:100DD00010B542485421FFF70DFC41485421FFF75C
:100DE00009FC40485421FFF705FC3F493B483C4A79
:100DF0003F4B08603D490A603A491960531C03653E
:100E0000481C1065012008653B48344A39A17844E4
:100E100000F00CFA20B9384878440A3800F0ABFAF0
:100E200037482F4A35A1784400F000FA20B93448F9
:100E300078440A3800F09FFA32482A4A2FA17844B1
:100E400000F0F4F920B92F4878440A3800F093FAFA
:100E500040232248DC000021224600F0C4F920B1E2
:100E600025487844543800F086FA1D48224640232D
:100E7000002100F0B8F920B121487844543800F03E
:100E80007AFA184822461023002100F0ACF9002815
:100E900006D01C487844BDE81040563800F06BBAC4
:100EA00010BD104870B5006D20F001040B4800F033
:100EB00033FA0B4800F030FA0A4800F02DFA09E046
:100EC000206D20F00105204600F026FA204600F0B3
:100ED00078F82C46002CF3D170BD000038040020B7
:100EE0008C040020E004002050000020540000206A
:100EF00058000020720000008243000077000000CC
:100F00006E4300005A4300000EB5CDE9000100F029
:100F100009FC029069460120ABBE0EBD08B56946CA
:100F200000900220ABBE08BD1FB58DE807006946E2
:100F30000520ABBE04B010BD1FB58DE80F0069469B
:100F40000620ABBEF6E708B5694600900920ABBEA7
:100F500008BD1CB5CDE9000169460A20ABBE1CBD29
:100F6000704708B5694600900C20ABBE08BD000074
:100F700000487047340500207546FFF7F9FFAE467C
:100F800005006946534620F00700854618B020B595
:100F9000FFF770F9BDE820404FF000064FF0000762
:100FA0004FF000084FF0000B21F00701AC46ACE811
:100FB000C009ACE8C009ACE8C009ACE8C0098D467E
:100FC000704770B50446051F00F01EFA0068002C3B
:100FD00014BF446870BD002C18BFAC423CBF204613
:100FE0006468F8D301680A18AA4218BF456003D1A3
:100FF0002A6805461144016028684119A1421CBFB6
:101000006C6070BD6168696021680844286070BDCB
:101010002DE9F04705460C46C86820F4201040F43E
:101020008000C860800602D5084600F03AFBE06800
:1010300041F282014FF0FF390140022903D02046DE
:1010400000F0D8FAB5E000F42041B1F5004F0FD11F
:10105000C00306D56168E06A884200D8084660602F
:1010600006E02069E06260606069FFF77AFFA061D6
:10107000A0680022EEB200280DDAE1688B050AD4E0
:10108000C043A06041F490302260E0606068411C81
:1010900061600670A5E0E0689046226040F4005070
:1010A000E060206968BB6069FFF74DFF012704F12C
:1010B0002405A0B1A08910F4407F08D0E06900F0B9
:1010C000EEF9206118B1E06840F4006016E0E761D5
:1010D0002561E06820F4407040F480600EE0E06933
:1010E00000F0DDF900282061F1D0E06840F40060F4
:1010F00010F4407FE06002D140F48070E06020692D
:101100006060E06825696FF0010AC1051FD561685C
:10111000E06A884200D80846411B04D0224628468F
:1011200000F072FAF0BBE068010203D5E562C4E9A1
:10113000015854E0691CE1626160E16940F480306B
:10114000491EC4E9021030462E70BDE8F087010246
:1011500002D500F480320AE06068411C61600670CC
:10116000E0680A2E40F48030E06006D00022E16A98
:101170006068814203D90B4602E00122F7E703468B
:10118000A7895B1B7F0503D4E7699F4200DDE2B1BD
:10119000814200D80146E5620F1AC4E90158002BCC
:1011A00009DD00E005E022461946284600F02CFA49
:1011B00008B14846C9E747B1A069E5626560C01B50
:1011C000A061E06840F01000E060E068000208D52F
:1011D0006168A069E562491B08446560A0615046EA
:1011E000B3E73046B1E770B5C468A50713D0650210
:1011F00011D4B2F5807F09D0B2F5007F06D0B2F5E8
:10120000806F08D1012300F1240106E05D1E6FF01C
:101210007F46B54201D3012070BD0161C3614160C9
:1012200024F470611143C160002070BD2DE9F041CC
:101230000C4607461646104600F06EF82078611CF2
:1012400061280AD0722802D077283CD102E001251B
:10125000002405E00225042402E0082448F20205E7
:1012600011F8010B2B2806D0622809D011F8010CC7
:1012700074280AD00BE045F0030544F00204EFE7C0
:1012800045F0040544F00104EAE744F01004384650
:101290002146FFF739FE411C15D0002131617160F4
:1012A0004FF40071F560F1617061200704D530469C
:1012B0000222002100F022F9306D40F0010030657B
:1012C0003046BDE8F0810020FBE72DE9F0410D46F6
:1012D0000646104C206DC10704D0410804D020F010
:1012E0000104F7E722460EE0542000F0D8F807008A
:1012F0000ED0206D47F00101084354212065384687
:10130000FFF778F93A4629463046BDE8F0418DE7C7
:101310000020D6E7380400202DE9F04704464FF0BE
:1013200000094FF0FF37C568D4E90486A80707D045
:10133000204600F093F93046FFF7F0FD002802DA6E
:101340003846BDE8F087280502D54046FFF739FE4C
:101350004C212046FFF74EF9206D20F0010020655A
:101360004846EEE710B50446AFF300802046BDE8DE
:101370001040FEF76ABF10B500F0BAF9BDE81040A2
:1013800000F0B0B94FF0013C50F8042B51F8043B89
:101390009A4221D1A2EB0C03934313EACC1317D149
:1013A00050F8042B51F8043B9A4215D1A2EB0C03E0
:1013B000934313EACC130BD150F8042B51F8043BA0
:1013C0009A4209D1A2EB0C03934313EACC13DBD06E
:1013D0004FF00000704700BFD01A01BAB1FA81F196
:1013E00001F0180122FA01F0CB40C1F12001DBB27B
:1013F000C0B2C01A2CFA01F3D11A914311EAC311F9
:10140000E6D1704770470000004870473C05002057
:10141000704770477047704738B504460A46002049
:101420006946AFF30080002808BF38BD0246009926
:10143000204600F0A4F9012038BD012000F0F3B9E6
:10144000F8B5AFF30080054600200C46102000BF21
:101450000646A819A0420DD9324669460020AFF3CE
:101460000080070008BF00F0DEF90098A04218BF16
:101470000546C419FFF7C8FF05600746F01D20F0B8
:1014800007004619284600F073F9B44208BFF8BDBA
:10149000A21B31463868BDE8F84000F070B970B55D
:1014A0000646FFF7B1FF056806F10B0020F00704C0
:1014B000B4429CBF002070BD2B466A68BAB1106868
:1014C000A04210D304F1080188423CBF5068586024
:1014D00007D35168101941601168091B01605860F9
:1014E0001460101D70BD13465268002AE7D12146D2
:1014F0002846FFF791FF0028DED170BD2DE9F041AD
:10150000044616460D464769007B80072ED03846B4
:10151000FFF719FD50BB3EB3012E02D0022E25D19C
:1015200004E0204600F045F905441DE03846FFF789
:1015300018FDE168002841F01001E16005DA20465D
:1015400000F058F80120BDE8F081C9030BD56268AE
:10155000E16A914200D81146A26911442269891AB0
:10156000814200DD08460544002D01DA0220EAE749
:10157000E16A6068E268814206D29103E06203D5C5
:1015800022F4003141F01002A6690027AE4213DCBC
:10159000E16A814201D90B4600E0034603EB060CE9
:1015A0002369ACEB030CAC4506DD814201D98C46C6
:1015B00000E084469C4505D1A760276042F02000EA
:1015C000A5620DE0AD1BE669AE1B8142A66000D9A5
:1015D0000846C01A281A20605819606022F02000BE
:1015E00003490840E060002084F84870ABE7000041
:1015F000BFCFD7FFC16821F4001141F08001C16065
:1016000000218160016070472DE9F0478146144652
:101610000E464FF0FF383248D5685769054209D069
:101620003846A169FFF795FC002811DB2C48C04320
:101630000540E5602B46324649463846FFF774FCC4
:10164000A16920F00042B21A11440028A16103D020
:101650002046FFF7CFFF4046BDE8F08770B504464F
:101660000569C06A6168884200D80846E16821F4CB
:101670002011E160C90312D5A84208D02246411BBF
:101680002846FFF7C1FF10B14FF0FF3070BD0020BA
:10169000E562C4E90150E06820F48030E060002099
:1016A00070BD10B50446C06820F02000E060A16A5B
:1016B000A06988420DD02046FFF7D0FFE06820F4F3
:1016C000405040F01000E060A06AA0612069E06234
:1016D000606044F24001E0688843E06010BD0000B3
:1016E00010000200002801D000F03CB87047000054
:1016F00010B5014602A000F07DF8012010BD0000E9
:1017000053494752545245443A20526564697265C0
:1017100063743A2063616E2774206F70656E3A209F
:101720000000000010B5431C02E010F8011B71B16D
:101730008107FAD14FF0013202C88C1A8C4314EAA7
:10174000C211F9D0C01A0A0603D0C01E10BDC01ABB
:1017500010BD0A0401D0801E10BD0902FCD0401E3D
:1017600010BD000001491820ABBEFEE726000200B4
:1017700000210160C0E90110704710207047034646
:1017800040688C46002818BF88423CBF034640682A
:10179000F8D318681844884207D00CF1030020F0F1
:1017A0000700001D411A521A0146081D0A60FFF782
:1017B00008BC10B50146C268900703D0900607D553
:1017C000886A0AE000F03EF801210160881E10BD21
:1017D0008B69486818440B69C01A91F848301BB1EE
:1017E00091F84910401A10BD1103FCD50028FADD0C
:1017F000401E10BD70B505460C460A2000E06D1C69
:1018000000F018F835B128780028F8D102E0641CFF
:1018100000F010F814B120780028F8D1BDE870402D
:101820000A2000F007B810B500F010F8BDE810402D
:10183000FFF758BF08B569468DF800000320ABBE1E
:1018400008BD0000004870473405002010B501288D
:1018500005D0002103A0FFF7CDFF012010BD09A195
:10186000F8E7000053494752544D454D3A204F7513
:1018700074206F662068656170206D656D6F727988
:10188000000000003A2048656170206D656D6F7240
:101890007920636F72727570746564005FEA400C42
:1018A00008BF91F0000F4FEA8C234FEAC12243EAB0
:1018B00051514FEA1C5018BF00F5F0404FEA30007C
:1018C00018BF41F000415FEA6C5C00F02980BCF178
:1018D000FF3F08BF40F080407047130C06BF120462
:1018E0004FF0100C4FF0000C130E04BF12020CF15D
:1018F000080C130F04BF12010CF1040C930F04BF6A
:1019000092000CF1020CD30F04BF52000CF1010C39
:1019100011464FF00002A0F11F00A0EB0C00704731
:1019200011F0004F08BF704731F000413FF4D5AFD0
:101930000B0C06BF09044FF0100C4FF0000C0B0EFF
:1019400004BF09020CF1080C0B0F04BF09010CF1D4
:10195000040C8B0F04BF89000CF1020CCB0F04BFE9
:1019600049000CF1010CCCF12003A0EB0C0022FA91
:1019700003F302FA0CF241EA030100F1010070479F
:1019800020F07F4C80EA030023F07F47ACEB070395
:1019900003F57C5300F0004003F1FF032DE980497B
:1019A0004FEA154B09B44FEA144325EA0B4E24EADB
:1019B00003480FF2042606EB132749083E785FEA36
:1019C000320203FB0667C7F5000707FB06F64FEA7E
:1019D00054374FEAD64606F1020607FB066CCCF1F7
:1019E000005C4FEA1C472CEA074C07FB06F40CFB93
:1019F00006F504EB15464FEA961634BF00204FF06B
:101A000000404FEAD13706FB07FC4FEA1C4C0CFBA9
:101A10000BF7D21B03FB0CF761EB07010CFB0EF776
:101A2000B0EB074072EB17420CFB08F734BFA2EB98
:101A30000742B2EB074261EB17414FEA0C444FEA11
:101A4000910706FB07FC4FEA1C4C0CFB0BF7B0EBB5
:101A5000C74072EB573203FB0CF734BFA2EBC7420F
:101A6000B2EBC74261EB57310CFB0EF7B0EBC7008E
:101A700072EB57720CFB08F734BFA2EBC702B2EB54
:101A8000C70261EB5771039F4FEA816141EA9211EE
:101A900004EBCC044FEAD1374FEA826206FB07FC25
:101AA00042EA90124FEA80604FEA1C4C0CFB0BF7A5
:101AB000D21B03FB0CF761EB07010CFB0EF7B0EB3D
:101AC000074072EB17420CFB08F734BFA2EB07424A
:101AD000B2EB074261EB17414FEA8C554FEA910791
:101AE00004EB9C2406FB07FC4FEA1C4C0CFB0BF799
:101AF000B0EBC74072EB573203FB0CF734BFA2EBDD
:101B0000C742B2EBC74261EB57310CFB0EF7B0EBAB
:101B1000C70072EB57720CFB08F734BFA2EBC70289
:101B2000B2EBC70261EB577115EB4C254FEA8161AF
:101B300041EA92114FEA82624FEAD13742EA9012AB
:101B400006FB07FC44F100044FEA80604FEA1C4C9E
:101B50000CFB0BF7D21B03FB0CF761EB07010CFB33
:101B60000EF7B0EB074072EB17420CFB08F734BFDF
:101B7000A2EB0742B2EB074261EB174115EB1C15D4
:101B80004FEA813141EA92414FEA823242EA904281
:101B90004FEA80304FEA0C7644F1000448EA0343F0
:101BA0004EEA0B484FF0000EB2EB080C71EB030746
:101BB00024BF624639464EEB0E0E4FF0000B001864
:101BC000524149414BEB0B0BB2EB080C71EB030795
:101BD0007BF1000B24BF624639464EEB0E0E4FF0F0
:101BE000000B0018524149414BEB0B0BB2EB080CB8
:101BF00071EB03077BF1000B24BF624639464EEBC5
:101C00000E0E51EA020718BF46F0010616EB0E76DB
:101C100055F1000254F1000103D5BDE88901BDE88A
:101C20000088BDE88901BDE80048B619524141EB82
:101C30000101A3F10103704780807F7E7D7C7B7A68
:101C40007978777676757473727171706F6E6E6D68
:101C50006C6C6B6A6A69686867666665646463630E
:101C600062616160605F5F5E5E5D5D5C5C5B5B5A94
:101C70005A59595858575756565555555454535301
:101C800052525251515050504F4F4F4E4E4D4D4D5C
:101C90004C4C4C4B4B4B4A4A4A49494948484847A7
:101CA00047474746464645454544444444434343E5
:101CB0004342424242414141002B9C4630D477008E
:101CC0002BD01CB54FEA370703B44FF010004FF08C
:101CD0001001BAF1000F06D0BCF1000FDCBF40F0DC
:101CE000080040F008014FF000000FBCBDE81040B4
:101CF0000BF1010BBBF1010F08BF5FEA170722BF11
:101D000012F1010211F101014FF0004143F1000312
:101D100000F0004043EA00007047F9D35708D0E7CD
:101D200046EA064613F1400F4FEA16461FDD13F14F
:101D3000200FDFBF16430A46002120335B42BED08E
:101D4000C3F1200746EA064602FA07F74FEA1646AD
:101D500046EA0706C3F1200722FA03F201FA07F761
:101D600021FA03F14FF0000342EA0702A7E746EA2F
:101D7000020646EA06464FEA164646EA0106BCBF98
:101D800046EA0646360C4FF000034FF000024FF0D3
:101D9000000194E72DE9804C9A46934670B491E88F
:101DA000380007C831EA400C48BF34EA430C03D579
:101DB000FFF7E6FDFFF780FFF0BCBDE8008C2DE9E2
:101DC000804C9A46934670B491E8380007C810F0EA
:101DD000804F08BF13F0804F03D100F005F8FFF7E4
:101DE0006BFFF0BCBDE8008C20F07F4780EA030069
:101DF00023F07F4C07EB0C03A3F57C5300F000406D
:101E0000A3F1FE0392F0000F00F0B38095F0000FF5
:101E100000F077802DE901494FEA11404FEA14465E
:101E200021EA004800FB06FC24EA064708FB06F608
:101E300007FB08F800FB07F718EB06484CEB164CBD
:101E40004FEA124B18EB07484FEA15464CEB174088
:101E500022EA0B4E0BFB06FC25EA06470EFB06F6B4
:101E600007FB0EFE0BFB07F71EEB064E4CEB164C6A
:101E70004FF000061EEB074E4CEB174B18EB0B0810
:101E800040F1000018EB0E0B58EB000840F1000089
:101E90008F1A4FF000013CBFC943661B14BFB5EB5E
:101EA000040C00213CBFC943F61B4FEA17444EEA1D
:101EB0008E0E27EA04454FEA1C4704FB07622CEA12
:101EC000074C05FB07F70CFB05F604FB0CFC16EBB7
:101ED000074642EB174216EB0C4642EB1C421BEB4B
:101EE000060658EB0202414146EA9E0601D5BDE8CE
:101EF0000189B619524141EB0101A3F10103BDE88B
:101F000001894FEA14454FEA114724EA054621EAC0
:101F1000074C05FB07F406FB07F70CFB06F105FB76
:101F20000CFC11EB074144EB17444FEA124711EB4D
:101F30000C4144EB1C4422EA074C05FB07F206FB6C
:101F400007F70CFB06F605FB0CFC16EB074642EB0D
:101F5000174216EB0C4642EB1C456A1854F100017F
:101F600048BF7047B619524141EB0101A3F101038B
:101F7000704795F0000F37D04FEA11424FEA1447EF
:101F800021EA024624EA074C02FB07F106FB07F7A9
:101F90000CFB06F402FB0CFC14EB074441EB17416D
:101FA0004FEA154714EB0C4441EB1C4125EA074C62
:101FB00002FB07F506FB07F70CFB06F602FB0CFC21
:101FC00016EB074645EB174516EB0C4645EB1C4256
:101FD000121951F1000148BF7047B619524141EB47
:101FE0000101A3F1010370474FEA14454FEA11477D
:101FF00024EA054621EA074C05FB07F106FB07F733
:102000000CFB06F24FF0000605FB0CFC12EB07423E
:1020100041EB174112EB0C4251EB1C4148BF70479A
:10202000921841EB0101A3F1010370472DE9F04142
:102030000124DFF85480154E002700BF58F8240013
:1020400002F03EFA022537700321342002F06CFAC8
:10205000642002F065FD307840B158F824100CA0DF
:10206000FEF792F9BDE8F04101F07ABE6D1EEAD1AB
:10207000641C0A2CE2DB0CA0FEF786F9BDE8F041F7
:102080000FA0FEF781B90000C04E0008000000203C
:10209000256420626175642066696E642073656ED4
:1020A000736F720D0A0D0A0063616E206E6F7420EB
:1020B00066696E642073656E736F720D0A000000AE
:1020C000706C6561736520636865636B20796F75FB
:1020D0007220636F6E6E656374696F6E0D0A000027
:1020E000FEE7884203DB904201DC012070470020BC
:1020F0007047000010B5334C2079632855D00EDCB2
:1021000055282DD006DC422830D043284BD0522809
:1021100055D13EE061280FD0622850D12FE06D28C4
:1021200010D004DC652812D0682848D145E0722818
:1021300033D0752843D10FE002F0DEFB00283ED0FB
:1021400021A037E002F0F6FB03E025A032E002F028
:102150000FFC0028F9D132E0062002E026A029E099
:10216000002002F021FB0028F8D128E0062002F030
:1021700099FB08B126A01DE04FF4E13006E00220F3
:1021800002F090FB0028F5D14FF4165002F098F9B8
:1021900015E0062002E023A00CE0032002F058FB2B
:1021A0000028F8D10BE01E2000E0022002F026FB00
:1021B00028B121A0FEF7E8F801E001F0D1FDFF20F1
:1021C000207110BD000000200D0A5365742041638A
:1021D0006343616C69204572726F720D0A000000E2
:1021E0000D0A536574204D616743616C6920457227
:1021F000726F720D0A0000000D0A5365742042616F
:102200006E647769647468204572726F720D0A009B
:102210000D0A5365742042617564204572726F72B5
:102220000D0A00000D0A5365742052617465204543
:1022300072726F720D0A00000D0A536574205253BA
:1022400057204572726F720D0A00000070B5114C74
:102250000F4962798854521CD0B26071032803D3AD
:102260000025322801D3657170BD48780D2802D150
:102270008A780A2A05D00870887848700220607130
:1022800070BD0878207132210148FEF791F9EAE724
:102290005C000020000000202DE9F0470027042505
:1022A000DFF8A080DFF8A09050383E4601F1060A22
:1022B000102845D2DFE800F01108130C1517191B80
:1022C0001D1F21444444442334240325402702E0B5
:1022D0003D2403252E27012613E0302411E0372466
:1022E0002BE03A2429E041240BE0452409E049246D
:1022F00007E04D2405E0512403E0552401E0D8F81F
:102300002440032A19D04DB16A0009EB4400FEF7BE
:102310000AF9D8F81420294620469047002E0FD0FD
:10232000720009EB47005146FEF7FDF8314638468A
:10233000D8F81420BDE8F047104703250026E3E74E
:10234000BDE8F0870C00002018030020704702F061
:10235000E7BB72B6FEE72DE9F0410446876D00F059
:102360004DF9064694F835000025022806D0802055
:10237000606584F834500120BDE8F0812068016870
:1023800021F0160101602068416921F0800141615E
:10239000206C08B9A06C20B12068016821F0080108
:1023A00001602068016821F0010101600CE000F08B
:1023B00025F9801B052807D920206065032084F8B3
:1023C000350084F83450D7E720680068C007EED1A4
:1023D00094F85C103F208840B860012084F83500F4
:1023E00084F834500020C7E790F83510022903D054
:1023F0008021416501207047052180F83510006873
:10240000016821F001010160002070472DE9F84FBB
:10241000DFF8BCA10022012503264FF00F090AF1C5
:10242000040BAAF1040E00BF0B6805FA02F4234066
:10243000A34270D10F7907F00307012F01D0022FBB
:1024400016D187684FEA420806FA08FC27EA0C070B
:10245000D1F80CC00CFA08FC4CEA070CC0F808C014
:102460004768A7430C79C4F3001494403C4344608C
:102470000C79E443A4070AD0C4684FEA420C06FA78
:102480000CF7BC438F6807FA0CF72743C7600C7939
:1024900004F00304022C12D1D40800EB840CDCF805
:1024A00020405707FF0E09FA07F824EA0804D1F87C
:1024B000108008FA07F848EA0408CCF8208004687D
:1024C0004FEA420C06FA0CF7BC430F7907F00307FA
:1024D00007FA0CF7274307604C6814F4403F70D0AC
:1024E0003C4C276847F480472760246822F00307A4
:1024F00004F480440094384C07EB040CDCF80848E2
:1025000097074FEA177809FA08F7BC43334FB842E8
:1025100002D1002724E054E0314FB84201D1012715
:102520001EE0304FB84201D1022719E02E4FB842C9
:1025300001D1032714E02D4FB84201D104270FE049
:102540002B4FB84201D105270AE02A4FB84201D1EA
:10255000062705E0284FB84201D1072700E00827E9
:1025600007FA08F72743CCF80878DAF8004057460E
:10257000D1F804C09C435FEACC2C00D51C433C60DE
:10258000DBF800405F46D1F804C09C435FEA8C2C26
:1025900000D51C433C60DEF800407746D1F804C00B
:1025A0009C435FEA8C3C00D51C433C60084F083FCD
:1025B0003C68D1F804C09C435FEACC3C00D51C4386
:1025C0003C60521C102AFFF42FAFBDE8F88F0000CA
:1025D000083C014044380240003001400000024005
:1025E0000004024000080240000C024000100240BB
:1025F0000014024000180240001C0240014880689C
:1026000070470000400000200B4810B5016841F4FD
:1026100000710160016841F480610160016841F46A
:1026200080710160032000F071F8002000F006F8CE
:1026300000F024F8002010BD003C024070B50D4DA4
:1026400004464FF47A712878B1FBF0F00A49096822
:10265000B1FBF0F000F04CFE48B9102C07D200227C
:102660002146501E00F032F800206C6070BD012041
:1026700070BD0000400000204C0000200B4882B0DC
:10268000016841F480410160006800F480400090DE
:102690000648001F016841F080510160006800F0A9
:1026A00080500090072002B000F030B8443802405B
:1026B000002809DB00F01F02012191404009800041
:1026C00000F1E020C0F8001170470000F0B40E4B9C
:1026D0001B680C46C3F30223C3F10705042D00D980
:1026E0000425191D072901D2002300E0DB1E012665
:1026F00006FA05F1491E214099409E40761E16407B
:102700003143F0BC02F0F4B90CED00E0064900F0F2
:10271000070208684FF6FF03184040EA0220034A08
:1027200010430860704700000CED00E00000FA055F
:102730002DE9F843054600684FF00109C1074FF045
:10274000000601D1400727D5DFF80C81C8F8686082
:10275000FFF754FF0746414C05E000BFFFF74EFF6F
:10276000C01B022857D820680001F7D4686881018F
:10277000287A41EA0070394984310860C8F86890C5
:10278000FFF73CFF074604E0FFF738FFC01B0228B5
:1027900041D820680001F7D52878800752D52F4806
:1027A0004030016841F08051016000682C4C00F01D
:1027B00080500090206840F480702060FFF71EFF7A
:1027C000074604E0FFF71AFFC01B022823D8206841
:1027D000C005F7D5214C7034206810F4407020D02B
:1027E000A98901F4407181421BD020681D4920F461
:1027F0004070C1F800900E6020602068C00710D0C3
:10280000FFF7FCFE064641F2883707E0FFF7F6FEC9
:10281000801BB84202D90320BDE8F88320688007F6
:10282000F4D5E9680D48C1F301220830032A0BD022
:10283000016821F4F81101602068A989C1F30B0136
:10284000084320600020E7E70268074B22F4F812F3
:1028500019400A430260EFE7000047420038024097
:1028600000700040400E4742FFFCFF0F2DE9F0478B
:102870000E46050065D0DFF81481D8F80000F7B2E5
:1028800000F00700B04207D288F80070D8F80000C6
:1028900000F00700B04254D128683D4C810712D5A2
:1028A000400703D5206840F4E050206028780007F6
:1028B00003D5206840F4604020602068A96820F0BB
:1028C000F000084320602878C0072DD030496868A0
:1028D0000839012812D0022813D0032811D0096822
:1028E000890700292DDA216821F0030101432160C5
:1028F000FFF784FE814641F2883A0EE009688903B9
:10290000EFE709688901ECE7FFF778FEA0EB090122
:10291000514502D90320BDE8F0872068696800F0BE
:102920000C00B0EB810FEFD1D8F80010404601F059
:102930000701B14207D90770006800F00700B042F4
:1029400001D00120E7E72878400705D52068E9682D
:1029500020F4E050084320602878000706D520685E
:10296000296920F4604040EAC100206000F038F896
:102970002168084AC1F30311515CC8400649086048
:1029800006480068FFF75AFE0020C4E7003C0240FA
:1029900008380240E85000084C00002044000020A5
:1029A0000448054900680968044AC1F38221515C62
:1029B000C84070474C00002008380240F85000081A
:1029C0000448054900680968044AC1F34231515C72
:1029D000C84070474C00002008380240F8500008FA
:1029E000154810B5006810F00C02144813D04110BF
:1029F000042A0FD0082A0ED10F4C241F2268236806
:102A000002F03F025B0207D52068C0F38810A0FBEC
:102A1000010106E0084610BD2168C1F38811A1FB41
:102A200000010023FDF738FC2168C1F30141491C76
:102A30004900B0FBF1F010BD083802400024F4005A
:102A40002DE9F84F04006ED02078DFF84C93C007D2
:102A5000A9F104054AD009F104000168C1F381011C
:102A6000012908D00068C0F3810002280AD1D9F8F2
:102A70000000400206D52868800337D5606800282A
:102A8000E1D033E06068B0F5803F10D0B0F5A02F02
:102A9000286810D020F480302860286820F4802036
:102AA00028606068A8B1FFF7A9FD06460DE0286818
:102AB00040F48030F4E740F480202860F7E700BF5E
:102AC000FFF79CFD801B642873D828688003F7D526
:102AD0000CE0FFF793FD064605E000BFFFF78EFD13
:102AE000801B6428F0D828688003F7D42078DFF8AA
:102AF000AC8280074FF0000A3ED5A748001D016850
:102B000011F00C0F08D00068C0F3810002280BD12F
:102B1000D9F80000400207D42868800716D5E0687D
:102B2000012800D112E033E1E068B8B10120C8F813
:102B30000000FFF763FD064605E000BFFFF75EFDFE
:102B4000801B0228C0D828688007F7D5286821692B
:102B500020F0F80040EAC10028600DE0C8F800A0AD
:102B6000FFF74CFD064604E0FFF748FD801B0228F6
:102B70001FD828688007F7D42078000722D5864F11
:102B800087486169703771B101210160FFF736FD37
:102B9000064604E0FFF732FD801B022809D838689A
:102BA0008007F7D50EE0C0F800A0FFF727FD064626
:102BB00005E082E0FFF722FD801B02287DD83868FF
:102BC0008007F7D42078400768D5DFF8CCB100271C
:102BD0000BF13C0BDBF80000C0000BD4DBF800105D
:102BE00041F08051CBF80010DBF80000012700F025
:102BF000805000906B4E3068C00510D4306840F4AF
:102C000080703060FFF7FAFC009005E0FFF7F6FCFB
:102C10000099401A022850D83068C005F6D55E4E9B
:102C2000A0686C3601280FD00528306810D020F03D
:102C300001003060306820F004003060A068B8B156
:102C4000FFF7DCFC00900FE0306840F00100F4E793
:102C500040F004003060F7E7FFF7D0FC0099411A1C
:102C600041F28830814266D830688007F4D50EE0A2
:102C7000FFF7C4FC009007E0FFF7C0FC0099411A81
:102C800041F28830814256D830688007F4D42FB1A1
:102C9000DBF8001021F08051CBF80010A069C8B318
:102CA0003D49091D0968C1F3810102294AD0022862
:102CB000504607D0C8F8600000E03CE0FFF79EFCFB
:102CC00004463BE04746C8F86000FFF797FC06461D
:102CD00005E000BFFFF792FC801B02282BD8286874
:102CE0008001F7D4D4E907010843A16A2E4A4908B4
:102CF00002EB0141626A41EA8211084394F82C1008
:102D000040EA0161C9F8001001203866FFF776FC3F
:102D1000044606E03EE000BFFFF770FC001B0228FF
:102D200009D828688001F7D534E000BFFFF766FCBA
:102D3000001B022802D90320BDE8F88F2868800113
:102D4000F4D427E00128F7D0D9F80000E26900F4B4
:102D5000800191421CD1226A00F03F01914217D1BB
:102D600047F6C071626A0140B1EB821F10D1A26ABE
:102D70004FF0FF3300F4403103EB5202B1EB024F4E
:102D800006D194F82C1000F07060B0EB016F01D008
:102D90000120D1E70020CFE704380240000047427D
:102DA000800E4742007000400000FFFF70470000A7
:102DB0002DE9F74F0446007F934601281BD04FF0C2
:102DC000010884F81C80022060772168CA204862CC
:102DD000206853214162206880684FF0000540055B
:102DE0004FF0FF064FF0030A4FF47A790FD5FFF743
:102DF00005FC074607E00220BDE8FE8FFFF7FEFB5B
:102E0000C01B484519D82068C0684007F6D4206820
:102E1000816821F4806181602068C16801F08001CF
:102E200061F49061C160FFF7E9FB07460CE000BF69
:102E3000FFF7E4FBC01B484506D92068466284F8CA
:102E40001DA025770320D7E72068C0684007EFD58D
:102E50002068816821F0070181602068816841EA6B
:102E60000B0181602168019848612068816841F404
:102E7000806181602068466284F81D80257700208B
:102E8000BAE7704710B5144904464FF400300860A3
:102E900020688168C9040BD5C168C90508D5C16817
:102EA00001F0800161F4C071C1602046FFF7E9FFC5
:102EB0002068816889040BD5C168890508D5C16877
:102EC00001F0800161F42071C1602046FFF76EFFC0
:102ED0000120607710BD0000143C014010B50400D3
:102EE00002D0607F10B106E0012010BD00202077E5
:102EF000204600F041F8022060772068C168C9438D
:102F0000C90632D5CA214162216853204862204651
:102F100000F0C2FE20BB20688168164A1140816023
:102F20002168886862681043D4E904231A43104377
:102F300088602168E068086120680169228941EAA7
:102F400002410161204600F0CBFE48B921680A6CBD
:102F500022F480220A6421680A6CA3691A430A6475
:102F60002268FF21516208B110BD00200121617764
:102F700010BD0000BFFF8FFF1FB500210091019120
:102F80000291039100680C49884214D102200090FC
:102F9000000203906846FFF7CBFB08B1FFF7D9F9B1
:102FA000064901200860002211462920FFF78EFB08
:102FB0002920FFF77DFB1FBD002800403C0E474243
:102FC0002DE9F843644E03464FF4FA4730680C4647
:102FD000B0FBF7F0791148430090187F012877D0B3
:102FE0004FF0010983F81C900220587718680025DB
:102FF000002A80684FEA40606CD0002800DBE57052
:10300000A078227894F803C040EA02406278E1692F
:10301000120242EA8C52104394F8202040EA0260E7
:1030200008436169A26908436168D3F800C011438D
:10303000CA22CCF82420D3F800C05322CCF8242094
:10304000626AFF24B2F5807F1A684FF0030C5CD0EF
:10305000D2F8088028F40078C2F808801A68D2F8FC
:103060000C8008F0800868F42078C2F80C80326880
:103070004FF47A76B2FBF7F2724300921A68009E20
:10308000761E009661D0D668B607F8D5106218682B
:1030900081641868816841F40071816018688168F2
:1030A00041F4005181602D48016841F40031016014
:1030B0002A480830016841F4003101601868446210
:1030C00083F81D901D770020BDE8F88300E001E043
:1030D0000220F9E7002800DBE570207800F0D0FD41
:1030E0000204607800F0CCFD42EA0022A07800F0F3
:1030F000C7FD0243E07842EA805294F8200000F0D5
:10310000BFFD42EA0060E1698AE7966826F48076AE
:1031100096601A68D66806F0800666F4C076D660B7
:103120001A68009E761E00960FD0D668F607F8D073
:10313000D061186841641868816841F480718160C9
:103140001868816841F48051ACE7546283F81DC06F
:103150001D770320B8E700004C000020003C014030
:1031600070B50446007F0B46012819D0012626774A
:1031700002206077B2B19878D97840EA0145587852
:103180001978000240EA413005432168CA204862AC
:10319000216853204862204600F07EFDD0B122E035
:1031A000022070BD5878C10603D500F0EF000A3048
:1031B0005870D87800F064FD0204587800F060FD83
:1031C00042EA0022987800F05BFD0243187842EA58
:1031D0004035DAE70748054020684560204600F0A2
:1031E0007FFD00B966772268FF21516200212177B7
:1031F00070BD00003FFFFF002DE9F0410446007F55
:103200000D46012823D04FF0010884F81C800220CD
:1032100060772068002780684FEA4060D2B10028BC
:1032200000DBEF70A878297840EA01466878E978F1
:10323000000240EA815006432168CA2048622168A2
:1032400053204862204600F027FDB8B12CE0022050
:10325000BDE8F081002800DBEF70287800F010FD59
:103260000204687800F00CFD42EA0022A87800F021
:1032700007FD0243E87842EA8056DDE70D48064044
:10328000206806602068816821F480218160D5E98A
:103290000301084321688A6810438860204600F0D3
:1032A0001FFD08B984F81D802268FF21516227772D
:1032B000CEE700007F7F7F0070B504460B48216891
:1032C000C860FFF79BF905464FF47A7607E000BF28
:1032D000FFF794F9401BB04201D9032070BD20686C
:1032E000C0688006F4D5002070BD00005F7F01003B
:1032F00010B5401EB0F1807F01D3012010BD4FF00A
:10330000E02460610F21601701F0F2FB0020A06152
:1033100007202061002010BD7047704770B590F8FD
:103320003C20012A32D0012480F83C40022280F85F
:103330003D2003685A689D6822F070060A6832438F
:103340005A60134B02689A4214D0B2F1804F11D0E8
:10335000104B9A420ED0104B9A420BD00F4B9A4210
:1033600008D00F4B9A4205D00E4B9A4202D00E4B1A
:103370009A4204D1496825F080031943916080F88E
:103380003D40002180F83C10084670BD022070BD11
:10339000000001400004004000080040000C004014
:1033A00000040140004001400018004010B5040036
:1033B00003D094F83D0010B107E0012010BD0020BB
:1033C00084F83C00204600F01FF8022084F83D00FD
:1033D000211D206800F048FE012084F8460084F892
:1033E0003E0084F83F0084F8400084F8410084F8EF
:1033F000420084F8430084F8440084F8450084F8CF
:103400003D00002010BD000008B50068B0F1804FFD
:1034100015D0104988421CD10F48016841F4803111
:1034200001600068002200F48030009011461820EE
:10343000FFF74CF9BDE808401820FFF739B90648F6
:10344000001F016841F001010160006800F0010007
:10345000009008BD004001404438024070B5044669
:1034600090F83C000025012817D0012684F83C6024
:10347000022084F83D002068826822F0770222F45E
:103480007F4282600868502838D00DDC20284FD059
:1034900005DC90B3102811D14AE0022070BD30281D
:1034A00046D040280AD13BE060282FD070280DD0AC
:1034B000B0F5805F03D0B0F5005F12D0012584F82D
:1034C0003D60002084F83C00284670BDCB68D1E9FF
:1034D0000121206800F034FE2068816841F0770106
:1034E00009E0CB68D1E90121206800F029FE2068BD
:1034F000816841F480418160E1E719E0CA68496868
:10350000206800F02FFE5021206806E0CA68496854
:10351000206800F038FE6021206800F01BFECEE736
:10352000CA684968206800F01DFE40212068F4E761
:10353000226801461046F0E770472DE9F041044645
:103540000068C66805694FF00007A90713D5B107E1
:1035500011D5F91E0161012020772068806980075C
:10356000204602D0FFF7E8FF04E000F07EF8204696
:1035700000F07CF82777680716D5700714D5216806
:103580006FF004000861022020772068806910F441
:10359000407F204602D0FFF7CFFF04E000F065F83F
:1035A000204600F063F82777280715D5300713D594
:1035B00021686FF008000861042020772068C06946
:1035C0008007204602D0FFF7B7FF04E000F04DF877
:1035D000204600F04BF82777E80616D5F00614D5FC
:1035E00021686FF010000861082020772068C0690A
:1035F00010F4407F204602D0FFF79EFF04E000F069
:1036000034F8204600F032F82777E80708D0F007B2
:1036100006D021686FF001000861204600F027F80D
:10362000280608D5300606D521686FF080000861AD
:103630002046FFF771FE680608D5700606D521689A
:103640006FF040000861204600F012F8A8060AD585
:10365000B00608D521686FF0200008612046BDE85B
:10366000F041FFF75ABEBDE8F081704770477047E0
:103670007047704770470000F8B501680446086855
:10368000CA684B6910F00F0F4FF0000559D003F0D6
:10369000010602F49077374365D0C10705D0D10504
:1036A00003D5616C41F001016164410705D5D9077B
:1036B00003D0616C41F002016164810705D5D9072F
:1036C00003D0616C41F004016164010707D502F089
:1036D0002001314303D0616C41F008016164616CE9
:1036E00000293AD0800604D5900602D5204600F085
:1036F0008BFD20684069616CC0F38010090700D41D
:1037000060B3204600F059FD20684069400621D58D
:103710002068143050E8001F21F0400140E80012FA
:10372000002AF5D1E06BA8B16E490165E06BFEF7A8
:103730005BFE002811D0E06B016D01B0BDE8F040E8
:10374000084783060FD593060DD52046BDE8F840FF
:1037500000F05ABD2046FFF78DFFF8BD2046FFF769
:1037600089FF6564F8BD266B2023012E7DD1C60636
:103770007BD5D60679D508684868009048694FF02F
:103780000206400641D5E16B086840680004000C61
:10379000E8D0A28D8242E5D9E085C869B0F5807F86
:1037A0002DD020680C3050E8001F21F4807140E8D3
:1037B0000012002AF5D12068143050E8001F21F0D3
:1037C000010140E80012002AF5D12068143050E8C9
:1037D000001F21F0400140E80012002AF5D184F8D2
:1037E0004230256320680C3050E8001F21F01001A2
:1037F00040E80012002AF5D1E06BFEF7ACFD6663ED
:10380000A08DE18D401A81B22AE0A08DE18D401A91
:1038100081B2E08D0028A5D00029A3D022680C3207
:1038200052E8000F20F4907042E80007002FF5D115
:103830002068143050E8002F22F0010240E80027F1
:10384000002FF5D184F84230256320680C3050E811
:10385000002F22F0100240E80023002BF5D1666310
:103860002046FFF706FFF8BDFFE705062BD5150636
:1038700029D594F841002128F5D1A068B0F5805FE2
:1038800001D12069B0B1206A411C21622168007811
:103890004860E08C401E0004000CE084E3D1206806
:1038A000C16821F08001C1602068C16841F0400119
:1038B000C160D8E7206A0088C0F308004860206A29
:1038C000801C2062E5E74006CDD55006CBD5CA68FE
:1038D000204622F04002CA6084F8413000F0C5F86A
:1038E000C1E70000AB41000870B5040004D094F8B3
:1038F0004100002510B106E0012070BD84F8405061
:10390000204600F023F8242084F841002068C16894
:1039100021F40051C160204600F0D8FC2068016904
:1039200021F4904101612068416921F02A0141613F
:103930002068C16841F40051C1606564202084F8AA
:10394000410084F842006563002070BDF0B587B087
:10395000044614216846FCF74DFE3D4B27680022C3
:103960003C490224032507263B489F4221D1394B7D
:1039700014331F6847F010071F601B6803F0100323
:1039800005930B6843F001030B60096802AB01F07B
:10399000010105916902CDE9001483E864006946DC
:1039A000FEF734FD002211462520FEF78FFE25206C
:1039B00024E0284BDFF8A4C01033674522D11F68EC
:1039C00047F400371F601B6803F4003305930B684E
:1039D00043F001030B60096802AF01F0010105919A
:1039E0000C21CDE9001487E864006946FEF70EFD5E
:1039F000002211462620FEF769FE2620FEF758FE1B
:103A000007B0F0BD16488742FAD1186840F480200C
:103A10001860186800F480200590086840F00200E3
:103A20000860086802AF00F0020005904FF44060A3
:103A3000CDE9000487E8640069460A48FEF7E6FC21
:103A4000002211462720FEF741FE2720D6E700007E
:103A500000100140303802400000024000440040A5
:103A6000004800400004024070477047FEE7000035
:103A70000D4808B5016841F080010160016801F05E
:103A800080010091016841F001010160016801F0CD
:103A900001010091016841F002010160006800F03D
:103AA0000200009008BD00003038024030B591B0EF
:103AB00014210AA8FCF79EFD0024282168460F94D3
:103AC000FCF798FD2D482C49C0E900147F21816046
:103AD000FF21C0E9031444618461FFF7FFF908B1D5
:103AE000FEF737FC23208DF8280059208DF8290097
:103AF00045208DF82A000D9401220AA91F480E9432
:103B0000FFF77AFB08B1FEF724FC06208DF83C0095
:103B100001258DF83D5027208DF83E008DF83F405F
:103B20002A460FA91548FFF71BFB08B1FEF711FC49
:103B30008DF800408DF8014010208DF802000494AB
:103B400000010194039409900594069407948DF85C
:103B50002050012269460948FFF732FA08B1FEF702
:103B6000F8FB002211460548FFF722F9002801D092
:103B7000FEF7EFFB11B030BD0028004090000020A0
:103B800010B586B000241748009401940294039461
:103B900004944FF080410594016042F2CF01C0E9E6
:103BA000011442F20F71C0E903148461FFF7FEFBB8
:103BB00008B1FEF7CEFB4FF48050009069460948EB
:103BC000FFF74CFC08B1FEF7C4FB2020CDE904044C
:103BD00004A90448FFF7A2FB002801D0FEF7B9FBB7
:103BE00006B010BDB00000201FB5002110480091A4
:103BF000019102910D4A03910260A722C0E90121BF
:103C000042F20F72C0E903218161FFF7CFFB08B1D7
:103C1000FEF79FFB4FF48050009069460448FFF781
:103C20001DFC002801D0FEF794FB1FBD00400140A1
:103C3000F80000200C4810B50A4901604FF4E1314A
:103C40004160002181600C22C160C0E904128161E1
:103C5000C161FFF749FE002803D0BDE81040FEF720
:103C600078BB10BD00480040D0010020FEE7FEE711
:103C7000704700000148FFF705B9000090000020E0
:103C8000002102E00A38C0B2491C0A28FAD209070A
:103C900040EA1160704700002DE9F04104460068D9
:103CA0000025C168490618D4C16841F08001C1608F
:103CB000FEF7A4FC06464FF47A78042707E000BF1D
:103CC000FEF79CFC801B404501D9677701252068E1
:103CD000C068400601D4002DF2D02846BDE8F0812E
:103CE00070B5044600680025C16821F08001C160FC
:103CF00020688068800606D42046FFF7DDFA10B100
:103D0000042060770125284670BD704710B5002358
:103D1000114A1DE0362806D0392809D03C280CD09D
:103D20003F2813D10EE0147844F0010414700DE024
:103D3000547844F00204547008E0D47844F0080445
:103D4000D47003E0947844F004049470401C5B1C2D
:103D50008B42DFD310BD00000000002000F078BBD4
:103D600010B51648FCF710FB1548FCF70DFB15A025
:103D7000FCF70AFB1F48FCF707FB1FA0FCF704FB3E
:103D800027A0FCF701FB31A0FCF7FEFA3CA0FCF7F2
:103D9000FBFA48A0FCF7F8FA54A0FCF7F5FA6148E2
:103DA000FCF7F2FA60A0FCF7EFFA6CA0FCF7ECFA73
:103DB000BDE810407048FCF7E7BA00006053000807
:103DC000A0510008554152542053454E443A615C7D
:103DD000725C6E202020416363656C65726174695A
:103DE0006F6E2063616C6962726174696F6E2E0D13
:103DF0000A000000F8520008554152542053454E25
:103E0000443A555C725C6E20202042616E64776992
:103E100064746820696E6372656173652E0D0A00B3
:103E2000554152542053454E443A755C725C6E20A5
:103E3000202042616E6477696474682072656475DD
:103E40006374696F6E2E0D0A0000000055415254D4
:103E50002053454E443A425C725C6E202020426101
:103E60007564207261746520696E63726561736543
:103E70006420746F203131353230302E0D0A00004D
:103E8000554152542053454E443A625C725C6E2058
:103E900020204261756420726174652072656475CA
:103EA0006374696F6E20746F20393630302E0D0ABE
:103EB00000000000554152542053454E443A525C94
:103EC000725C6E2020205468652072657475726E75
:103ED000207261746520696E637265617365732019
:103EE000746F203130487A2E0D0A0000554152542B
:103EF0002053454E443A725C725C6E202020546818
:103F0000652072657475726E2072617465207265C9
:103F100064756374696F6E20746F2031487A2E0D5A
:103F20000A00000094520008554152542053454E57
:103F3000443A635C725C6E20202052657475726E28
:103F400020636F6E74656E743A20616363656C659F
:103F5000726174696F6E2E0D0A0000005541525453
:103F60002053454E443A685C725C6E2020206865A0
:103F70006C702E0D0A000000405200080248816853
:103F8000491C8160704700000000002007484FF482
:103F90007A710068B0FBF1F14FF0E020491E4161F9
:103FA0000021816107210161704700004C00002061
:103FB00030B593B030216846FCF71CFB14210CA8E7
:103FC000FCF718FB1F480025016841F08051016093
:103FD000006800F0805011901B48016841F4804156
:103FE00001600068022400F48040119009200090D4
:103FF0004FF4803001900120CDE905048005079041
:10400000082008904FF4A870CDE9090407200B9010
:104010006846FEF715FD08B172B6FEE70CA90F2041
:1040200081E831004FF4A0500F904FF48050109071
:1040300005210CA8FEF71AFC002801D072B6FEE795
:1040400013B030BD403802400070004002480168A3
:1040500041F470010160704788ED00E00148FFF70E
:104060006CBA0000F8000020F0B50268294C2A4D17
:104070002A4E2B4F2B4B4FF0804CA04209D060456D
:1040800007D0A84205D0B04203D0B84201D0984230
:1040900004D122F0700E4A6842EA0E02A0421BD000
:1040A000604519D0A84217D0B04215D0B84213D0FD
:1040B000984211D01C4DA8420ED01C4DA8420BD0E6
:1040C0001B4DA84208D01B4DA84205D01A4DA8424E
:1040D00002D01A4DA84203D122F44075CA682A437F
:1040E0004D6922F080022A4302608A68C2620A682F
:1040F0008262A04201D0984201D109690163012185
:1041000041610169C90703D0016921F00101016121
:10411000F0BD000000000140000400400008004025
:10412000000C0040000401400040014000440140F8
:104130000048014000180040001C004000200040E2
:1041400010B5846842EA032224F47F440A432243E0
:10415000826010BD826822F070020A4342F00701BB
:104160008160704710B5036A046A24F00104046298
:10417000846924F0F00444EA021423F00A020A439A
:104180008461026210BD10B5036A046A24F0100451
:104190000462846923F0A00324F4704444EA0232E8
:1041A00043EA01118261016210BD10B5806B0021EC
:1041B000C185C184FFF75EFA10BD01680C3151E87A
:1041C000002F22F4907241E80023002BF5D1016802
:1041D000143151E8002F22F0010241E80023002BA6
:1041E000F5D1016B012909D101680C3151E8002F8B
:1041F00022F0100241E80023002BF5D1202180F8A5
:10420000421000210163704708B590F8421022293E
:1042100001D0022008BD82684FF480539A4201D138
:10422000016921B1816A9A421BD04AB10AE0026851
:10423000816A5268C2F308020A80816A891C08E018
:10424000026972B10268526802F07F020A70816AE4
:10425000491C8162C18D491E0904090CC18503D026
:104260001BE002685268F1E70168CA6822F0200288
:10427000CA600168CA6822F48072CA6001684A692B
:1042800022F001024A61202180F84210002141639E
:10429000026B012A03D0FFF7E7FB002008BD016392
:1042A00001680C3151E8002F22F0100241E8002390
:1042B000002BF5D101680A68D20602D50A68496860
:1042C0000091818DFFF7D5F9E7E7000070B504464E
:1042D00000680169E26821F44051114301612169DC
:1042E000A068E26908436169114308432168CA680C
:1042F00049F20C639A430243CA6020684169A2698B
:1043000021F440711143416131492068884202D053
:104310003049884202D1FEF753FB01E0FEF740FB33
:10432000E2690023192164253226B2F5004F626844
:1043300028D0A0FB0101930F9200FBF7ADFF0146CF
:10434000B0FBF5F06FF01802504301EB800006EB74
:104350000010B0FBF5F000F0F002B1FBF5F002EB5D
:104360000012B1FBF5F06FF01803584301EB800029
:1043700006EB0010B0FBF5F000F00F0021681044D0
:10438000886070BDA0FB010192185B41FBF784FFC0
:104390000146B0FBF5F00201B1FBF5F06FF0180338
:1043A000584301EB800006EBC000B0FBF5F000F0D5
:1043B000F80002EB4002B1FBF5F0584301EB80003E
:1043C00006EBC000B0FBF5F000F00700D6E70000F8
:1043D000001001400014014038B50A4C2068016803
:1043E0000948884308D109484068C0B2FDF72EFF4C
:1043F00005482168C0430860206801684068009053
:1044000038BD0000400100202000001000100140D5
:10441000094810B500680168084888430AD108486F
:104420004068C0B200F02AF904480349C043483943
:104430000968086010BD00008801002020000010FD
:10444000004400400148FFF717B90000D0010020E8
:1044500030B50A4B00220A4D1B6807E01C68E44394
:104460002406FBD410F8014B6C60521C8A42F5D331
:104470001868C0430006FBD430BD0000880100204E
:1044800000440040FEE700000C4810B50A490160F6
:104490004FF4E1314160002181600C22C160C0E92C
:1044A00004128161C161FFF71FFA002803D0BDE843
:1044B0001040FDF74EBF10BD00100140400100202C
:1044C0000C4810B50A4901604FF4E1314160002108
:1044D00081600C22C160C0E904128161C161FFF7F3
:1044E00003FA002803D0BDE81040FDF732BF10BD2D
:1044F000004400408801002018B103498861002071
:1045000070476FF0050070470C000020032802D9A7
:104510006FF005007047034A106211700020D061EF
:10452000704700000C0000202DE9FC5F0D46064698
:1045300028446FF0050C90287CD2494C6FF0040998
:104540002046D4F8208042684FF0FF0A4FF0AA0BB3
:104550004FF0270EF7B2C6F30721B8F1000F0FD0C6
:104560004FF6FF7000EA45032046B8F1010F0078CE
:1045700016D0B8F1020F33D0B8F1030F6ED142E07C
:10458000042D6BD8F2B38DF800A08DF801B08DF832
:1045900002E08DF804108DF803700521684659E09B
:1045A00082B35B1DB3F5807F32D88DF80000032005
:1045B0008DF80100280A8DF802108DF804008DF89E
:1045C00003708DF805500621684600F07BFA010A59
:1045D0008DF806108DF8070008216846626839E0FA
:1045E000032D3BD823696BB18DF800A08DF801B085
:1045F0008DF802E08DF804108DF8037005226946ED
:10460000984728E017E0E768AFB1B3F5807F03D99A
:104610006FF00300BDE8FC9F4006F1B2000E114AA6
:10462000B847012817D162692AB10E49002001F567
:1046300080730BE012E04846ECE700BF31F81070E1
:1046400000EB060C401C23F81C7080B2A842F5D386
:1046500029463046904700206662DBE76046D9E78E
:104660000C0000201802002018B103494861002006
:1046700070476FF0050070470C0000202DE9F047EF
:10468000414D696900293FD04049EA698854521C6C
:10469000EA61286A002630B1012837D0022870D09C
:1046A00003286BD16DE00878552834D1A9460B2A30
:1046B00064D30A27DFF8D4C0002005461CF8058023
:1046C0006D1C4044C0B2BD42F8D38D7A854205D0FE
:1046D000521EC9F81C202D48491C34E0488860F35C
:1046E0000F04888860F31F44C88860F30F030889AB
:1046F000C9F81C60497889F8011060F31F43C9E9C3
:104700000B430421C9F82810BDE8F087022A35D9E7
:104710004878032802D0521EEA61DCE78878401D01
:104720009042F1D888180C4630F8020C921E47BA15
:1047300091B2164800F0C6F9874208D0EA691348DA
:10474000521E611CEA61BDE8F047FBF7ECBEA078A1
:104750000F4B41080022686A0BE000BF04EB4207E0
:1047600002EB000CB7F80370521C7FBA23F81C70E0
:1047700092B28A42F2D36A69904702E0B2F5807F32
:10478000C2D1EE61C0E700000C000020180200203A
:104790001803002018B103494860002070476FF0EB
:1047A000050070470C00002070B504460622002169
:1047B00000B2FDF796FC40B14BF28851692000F041
:1047C000F5F86FF00205A0B902E06FF0050070BDCA
:1047D0000949086A012801D010B104E0142000E062
:1047E000012089698847A1B21F2000F0DFF8002866
:1047F000EDD0284670BD00000C00002070B50446C6
:1048000040F6FF72012100B2FDF76BFC40B14BF2A4
:104810008851692000F0CAF86FF00205A0B902E0E3
:104820006FF0050070BD0949086A012801D010B178
:1048300004E0142000E0012089698847A1B2022029
:1048400000F0B4F80028EDD0284670BD0C00002020
:1048500070B504460D22012100B2FDF742FC40B1C3
:104860004BF28851692000F0A1F86FF00205A0B961
:1048700002E06FF0050070BD0949086A012801D007
:1048800010B104E0142000E0012089698847A1B23A
:10489000032000F08BF80028EDD0284670BD000002
:1048A0000C00002070B504460722012100B2FDF77C
:1048B00018FC40B14BF28851692000F077F86FF096
:1048C0000205A0B902E06FF0050070BD0949086A51
:1048D000012801D010B104E0142000E00120896912
:1048E0008847A1B2042000F061F80028EDD02846E6
:1048F00070BD00000C00002010B54BF288516920FB
:1049000000F054F86FF0020480B909490A6A012ADC
:1049100001D012B104E0142000E001208969884729
:104920000121084600F042F8002800D0204610BDC2
:104930000C00002010B54BF28851692000F036F8C9
:104940006FF0020480B909490A6A012A01D012B144
:1049500004E0142000E00120896988470721012034
:1049600000F024F8002800D0204610BD0C000020E4
:1049700010B54BF28851692000F018F86FF002046E
:1049800080B909490A6A012A01D012B104E0142051
:1049900000E00120896988470021012000F006F825
:1049A000002800D0204610BD0C0000202DE9FC4757
:1049B0006FF0050A90281AD2354CCAB22346D4F8B3
:1049C0002080FF27090A5B686FF0040C4FF0AA09EA
:1049D000C6B2B8F1000F0DD02546B8F1010F2D7801
:1049E00017D0B8F1020F31D0B8F1030F40D05046C4
:1049F000BDE8FC87DBB38DF800708DF801908DF871
:104A000002608DF804108DF8032005216846984750
:104A10003AE063B306238DF800508DF80130000AA8
:104A20008DF802008DF804108DF803608DF80520D4
:104A30001946684600F046F8010A8DF806108DF810
:104A4000070062680821684690471DE0236973B13A
:104A50008DF800708DF801908DF802608DF80320BC
:104A60008DF8041005226946284698470CE00DE0B1
:104A7000A4685CB18DF800208DF80110C1B2680601
:104A8000000E02236A46A0470020B1E76046AFE768
:104A90000C00002003B401984100009850EAC120A6
:104AA00018BF04204A0D18BF40F0010040F2FF7209
:104AB000B2EB515F08BF40F00200012808BF05209B
:104AC00002B07047F0B5FF23084E1C46002206F5E1
:104AD000807705E0855C5D40735D63407C5D521CC2
:104AE0008A42F7DB44EA0320F0BD0000E84E0008EC
:104AF0000907090E002804DB00F1E02080F800140B
:104B0000704700F00F0000F1E02080F8141D70479E
:104B100030380A2801D20120704700207047000079
:104B2000034A916893685B1A8342FBD37047000085
:104B3000000000208A68002A01DCFCF769BA521ED6
:104B40008A604A68C0B2531C4B6010707047000006
:104B50008EB0FDF759FDFFF72BFAFEF789FFFFF73F
:104B600043F8FEF7A3FFFFF70BF8FFF763F8FFF733
:104B70000DFA4FF461242046FFF786FC2046FFF72C
:104B80009FFC50210020FFF7C1FC6148FFF702FEA7
:104B90006048FFF769FD6048FFF7AEFC5F48FBF730
:104BA000F3FBFDF743FADFF878A1DFF878B15E4C4C
:104BB000DFF87891FDF79EFA5D499BF80000DAF87E
:104BC0000020FDF769FB207830B9607820B9A07823
:104BD00010B9E0780028EDD0002004AA07AB0AAD98
:104BE0009FED540AF3EE001ADFED530A9FED531ABE
:104BF00009EB400131F9686F02EE106A02EB8006A2
:104C0000B8EEC22A22EE002A22EE212A86ED002AE0
:104C1000B1F9066002EE106A03EB8006B8EEC22A14
:104C200022EE002A22EE202A86ED002AB1F9121087
:104C300002EE101A05EB8001401CB8EEC22A0328D0
:104C400022EE002A22EE012A81ED002AD0DB207814
:104C5000069800F0BDF807468846059800F0B8F8B9
:104C600005460E46049800F0B3F88DE8E00141ECEB
:104C7000100B33A053EC102BFBF786FB207820F0B1
:104C8000010020706078099800F0A2F80746884675
:104C9000089800F09DF805460E46079800F098F831
:104CA0008DE8E00141EC100B2BA053EC102BFBF72F
:104CB0006BFB607820F002006070A0780C9800F028
:104CC00087F8074688460B9800F082F805460E469E
:104CD0000A9800F07DF88DE8E00141EC100B24A06B
:104CE00053EC102BFBF750FBA07820F00400A070D1
:104CF000E078B9F97830B9F97620B9F9741022A0C2
:104D0000FBF742FBE07820F00800E07052E700007B
:104D10005D3D00080D3D00084F230008F0510008DC
:104D2000340000200D0000200000002018030020A7
:104D300038000020000000380000FA44000034432E
:104D40006163633A252E336620252E336620252E97
:104D500033660D0A000000006779726F3A252E3322
:104D60006620252E336620252E33660D0A000000AE
:104D7000616E676C653A252E336620252E336620DA
:104D8000252E33660D0A00006D61673A25642025E3
:104D9000642025640D0A000010B500290AD00878A7
:104DA000002807D005487844FCF7ECFA002801D029
:104DB000002010BD0248784410BD00001E0600000F
:104DC000160600000808A0F500114FEA31017047EF
:104DD00043004FEAD30C4FEA3C0C43401FBF40074F
:104DE0000CF1605113F0FE4F70471CF0006F03D1BF
:104DF00000200CF0004170470CF0004343EA507073
:104E000010B540EACC0000F00EF800BF00000092A0
:104E10004FEA0001FFF7D6BF4FF000414FF000000E
:104E2000A1F5002170470EF1020E2EF0030E5EF880
:104E3000044B244204D44FEA4102B2F17F4F11D80F
:104E40004FEA4003B3F17F4F0CD80ED14FEAD07C2C
:104E5000B2F17F4F0CEB4C0C0CF1020C08BF4CEB89
:104E6000D17C04E04FF0080C01E04FEAD17C0CEB60
:104E70004C0324FA03F404F00704B4F1040C06D242
:104E80000EEB840CBDE810404CF0010C6047DFE8ED
:104E90000CF0070802024FF00040A0F5800010BDA2
:104EA0000846420018BFD2F1807288BF00F000406F
:104EB00010BD4FF04070E1EE100A7047FBF7F6BCF2
:104EC00000000000C012000080250000004B000020
:104ED0000096000000E1000000C201000084030011
:104EE0000008070000100E0000C1814001C0804191
:104EF00001C0804100C1814001C0804100C18140AA
:104F000000C1814001C0804101C0804100C1814099
:104F100000C1814001C0804100C1814001C0804189
:104F200001C0804100C1814001C0804100C1814079
:104F300000C1814001C0804100C1814001C0804169
:104F400001C0804100C1814000C1814001C0804159
:104F500001C0804100C1814001C0804100C1814049
:104F600000C1814001C0804101C0804100C1814039
:104F700000C1814001C0804100C1814001C0804129
:104F800001C0804100C1814000C1814001C0804119
:104F900001C0804100C1814001C0804100C1814009
:104FA00000C1814001C0804100C1814001C08041F9
:104FB00001C0804100C1814001C0804100C18140E9
:104FC00000C1814001C0804101C0804100C18140D9
:104FD00000C1814001C0804100C1814001C08041C9
:104FE00001C0804100C1814000C0C101C30302C2B1
:104FF000C60607C705C5C404CC0C0DCD0FCFCE0E19
:105000000ACACB0BC90908C8D81819D91BDBDA1A88
:105010001EDEDF1FDD1D1CDC14D4D515D71716D6F8
:10502000D21213D311D1D010F03031F133F3F23268
:1050300036F6F737F53534F43CFCFD3DFF3F3EFED8
:10504000FA3A3BFB39F9F83828E8E929EB2B2AEA48
:10505000EE2E2FEF2DEDEC2CE42425E527E7E626B8
:1050600022E2E323E12120E0A06061A163A3A26228
:1050700066A6A767A56564A46CACAD6DAF6F6EAE98
:10508000AA6A6BAB69A9A86878B8B979BB7B7ABA08
:10509000BE7E7FBF7DBDBC7CB47475B577B7B67678
:1050A00072B2B373B17170B05090915193535292E8
:1050B00096565797559594549C5C5D9D5F9F9E5E58
:1050C0005A9A9B5B99595898884849894B8B8A4AC8
:1050D0004E8E8F4F8D4D4C8C448485458747468638
:1050E00082424383418180400000000000000000B4
:1050F000010203040607080900000000010203047E
:1051000002400000000000A0000000000540000078
:10511000000000C8000000000C4000000000409C9F
:1051200000000000194000000020BCBE000000008C
:1051300034400000BFC91B8E00000004B5400000D1
:10514000504BCFD06607E2CF010000006C41000059
:105150003E8251AADFEEA73401000000D9420000D0
:10516000DCB5A0E23A301F97FFFFFFFFB445000017
:10517000FD25A0C8E9A3C14FFFFFFFFFFF3F0000CF
:105180000000008000000000FF3F000000000080E1
:10519000000000003A7474003A7474003A747400A9
:1051A0000D0A2A2A2A2A2A2A2A2A2A2A2A2A2A2A9C
:1051B0002A2A2A2A2A2A2A2A2A2A2020202020208B
:1051C0002020202048454C50202020202020202036
:1051D0002020202A2A2A2A2A2A2A2A2A2A2A2A2A4D
:1051E0002A2A2A2A2A2A2A2A2A2A2A0D0A000000DA
:1051F0000D0A2A2A2A2A2A2A2A2A2A2A2A2A2A2A4C
:105200002A2A2A2A2A2A2A2A207769742D6D6F745D
:10521000696F6E206E6F726D616C206578616D7064
:105220006C6520202A2A2A2A2A2A2A2A2A2A2A2A75
:105230002A2A2A2A2A2A2A2A2A2A2A2A0D0A00005F
:105240002A2A2A2A2A2A2A2A2A2A2A2A2A2A2A2ABE
:105250002A2A2A2A2A2A2A2A2A2A2A2A2A2A2A2AAE
:105260002A2A2A2A2A2A2A2A2A2A2A2A2A2A2A2A9E
:105270002A2A2A2A2A2A2A2A2A2A2A2A2A2A2A2A8E
:105280002A2A2A2A2A2A2A2A2A2A2A2A2A2A0D0ABB
:1052900000000000554152542053454E443A435CAF
:1052A000725C6E20202042617369632072657475A0
:1052B000726E20636F6E74656E743A20616363650D
:1052C0006C65726174696F6E2C20616E67756C61BC
:1052D000722076656C6F636974792C20616E676CDF
:1052E000652C206D61676E65746963206669656C05
:1052F000642E0D0A00000000554152542053454EC3
:10530000443A6D5C725C6E2020204D61676E65745E
:105310006963206669656C642063616C69627261AF
:1053200074696F6E2C41667465722063616C69628A
:10533000726174696F6E2073656E643A2020206517
:105340005C725C6E202020746F20696E64696361FA
:1053500074652074686520656E640D0A00000000A5
:105360000D0A2A2A2A2A2A2A2A2A2A2A2A2A2A2ADA
:105370002A2A2A2A2A2A2A2A2A2A09205749545F0D
:1053800053444B5F44454D4F092A2A2A2A2A2A2A88
:105390002A2A2A2A2A2A2A2A2A2A2A2A2A2A2A2A6D
:1053A0002A000000E0530008000000205C0000001C
:1053B000C40100083C5400085C0000203C6500006B
:1053C000E00100081C00000043000000F8FFFFFFA0
:1053D0000C0000000E0000000F0000002E00000076
:1053E00000000000FF00000000000000FF000000BF
:1053F00000000000000000000000000000000000AD
:10540000000000000000000000000000000000009C
:10541000000000000000000000000000000000008C
:105420000100000010000000000000000024F40053
:0C54300000000000000000000000000070
:040000050800018965
:00000001FF
